{
  "contractName": "ChainHome",
  "abi": [
    {
      "inputs": [],
      "payable": false,
      "stateMutability": "nonpayable",
      "type": "constructor"
    },
    {
      "anonymous": false,
      "inputs": [
        {
          "indexed": false,
          "name": "sender",
          "type": "address"
        },
        {
          "indexed": false,
          "name": "isSuccess",
          "type": "bool"
        },
        {
          "indexed": false,
          "name": "message",
          "type": "string"
        }
      ],
      "name": "NewLandLord",
      "type": "event"
    },
    {
      "anonymous": false,
      "inputs": [
        {
          "indexed": false,
          "name": "sender",
          "type": "address"
        },
        {
          "indexed": false,
          "name": "isSuccess",
          "type": "bool"
        },
        {
          "indexed": false,
          "name": "message",
          "type": "string"
        }
      ],
      "name": "NewTenant",
      "type": "event"
    },
    {
      "anonymous": false,
      "inputs": [
        {
          "indexed": false,
          "name": "sender",
          "type": "address"
        },
        {
          "indexed": false,
          "name": "isSuccess",
          "type": "bool"
        },
        {
          "indexed": false,
          "name": "message",
          "type": "string"
        }
      ],
      "name": "AddHouse",
      "type": "event"
    },
    {
      "anonymous": false,
      "inputs": [
        {
          "indexed": false,
          "name": "sender",
          "type": "address"
        },
        {
          "indexed": false,
          "name": "houseID",
          "type": "bytes32"
        },
        {
          "indexed": false,
          "name": "price_month",
          "type": "uint256"
        },
        {
          "indexed": false,
          "name": "cash_pledge",
          "type": "uint256"
        }
      ],
      "name": "GetHouseByHouseId",
      "type": "event"
    },
    {
      "anonymous": false,
      "inputs": [
        {
          "indexed": false,
          "name": "sender",
          "type": "address"
        },
        {
          "indexed": false,
          "name": "houseID",
          "type": "bytes32"
        },
        {
          "indexed": false,
          "name": "isSuccess",
          "type": "bool"
        },
        {
          "indexed": false,
          "name": "message",
          "type": "string"
        }
      ],
      "name": "UpdateHouseInfo",
      "type": "event"
    },
    {
      "anonymous": false,
      "inputs": [
        {
          "indexed": false,
          "name": "sender",
          "type": "address"
        },
        {
          "indexed": false,
          "name": "houseID",
          "type": "bytes32"
        },
        {
          "indexed": false,
          "name": "isSuccess",
          "type": "bool"
        },
        {
          "indexed": false,
          "name": "message",
          "type": "string"
        }
      ],
      "name": "DeleteHouse",
      "type": "event"
    },
    {
      "anonymous": false,
      "inputs": [
        {
          "indexed": false,
          "name": "sender",
          "type": "address"
        },
        {
          "indexed": false,
          "name": "houseID",
          "type": "bytes32"
        },
        {
          "indexed": false,
          "name": "_months",
          "type": "uint256"
        },
        {
          "indexed": false,
          "name": "isSuccess",
          "type": "bool"
        },
        {
          "indexed": false,
          "name": "message",
          "type": "string"
        }
      ],
      "name": "RentHouse",
      "type": "event"
    },
    {
      "anonymous": false,
      "inputs": [
        {
          "indexed": false,
          "name": "sender",
          "type": "address"
        },
        {
          "indexed": false,
          "name": "houseID",
          "type": "bytes32"
        },
        {
          "indexed": false,
          "name": "_months",
          "type": "uint256"
        },
        {
          "indexed": false,
          "name": "isSuccess",
          "type": "bool"
        },
        {
          "indexed": false,
          "name": "message",
          "type": "string"
        }
      ],
      "name": "EnsureRentDeal",
      "type": "event"
    },
    {
      "anonymous": false,
      "inputs": [
        {
          "indexed": false,
          "name": "sender",
          "type": "address"
        },
        {
          "indexed": false,
          "name": "message",
          "type": "string"
        }
      ],
      "name": "RechargeFoTenantByAddress",
      "type": "event"
    },
    {
      "anonymous": false,
      "inputs": [
        {
          "indexed": false,
          "name": "sender",
          "type": "address"
        },
        {
          "indexed": false,
          "name": "message",
          "type": "string"
        }
      ],
      "name": "Withdraw",
      "type": "event"
    },
    {
      "constant": true,
      "inputs": [],
      "name": "getOwner",
      "outputs": [
        {
          "name": "",
          "type": "address"
        }
      ],
      "payable": false,
      "stateMutability": "view",
      "type": "function"
    },
    {
      "constant": false,
      "inputs": [
        {
          "name": "_landlordAddr",
          "type": "address"
        },
        {
          "name": "_passwd",
          "type": "string"
        }
      ],
      "name": "newLandLord",
      "outputs": [],
      "payable": false,
      "stateMutability": "nonpayable",
      "type": "function"
    },
    {
      "constant": false,
      "inputs": [
        {
          "name": "_tenantAddr",
          "type": "address"
        },
        {
          "name": "_passwd",
          "type": "string"
        }
      ],
      "name": "newTenant",
      "outputs": [],
      "payable": false,
      "stateMutability": "nonpayable",
      "type": "function"
    },
    {
      "constant": false,
      "inputs": [
        {
          "name": "_landlordAddr",
          "type": "address"
        },
        {
          "name": "_houseID",
          "type": "string"
        },
        {
          "name": "_area",
          "type": "uint256"
        },
        {
          "name": "_price",
          "type": "uint256"
        },
        {
          "name": "_location",
          "type": "string"
        },
        {
          "name": "_cash_pledge",
          "type": "uint256"
        }
      ],
      "name": "addHouse",
      "outputs": [],
      "payable": false,
      "stateMutability": "nonpayable",
      "type": "function"
    },
    {
      "constant": false,
      "inputs": [
        {
          "name": "houseID",
          "type": "string"
        }
      ],
      "name": "getHouseByHouseId",
      "outputs": [
        {
          "name": "",
          "type": "address"
        },
        {
          "name": "",
          "type": "bytes32"
        },
        {
          "name": "",
          "type": "uint256"
        },
        {
          "name": "",
          "type": "uint256"
        }
      ],
      "payable": false,
      "stateMutability": "nonpayable",
      "type": "function"
    },
    {
      "constant": false,
      "inputs": [
        {
          "name": "keywords",
          "type": "string"
        }
      ],
      "name": "searchHouseByKeyWords",
      "outputs": [
        {
          "name": "",
          "type": "address"
        },
        {
          "name": "",
          "type": "bytes32"
        },
        {
          "name": "",
          "type": "uint256"
        },
        {
          "name": "",
          "type": "uint256"
        }
      ],
      "payable": false,
      "stateMutability": "nonpayable",
      "type": "function"
    },
    {
      "constant": false,
      "inputs": [
        {
          "name": "_houseID",
          "type": "string"
        },
        {
          "name": "price",
          "type": "uint256"
        },
        {
          "name": "_cash_pledge",
          "type": "uint256"
        }
      ],
      "name": "updateHouseInfo",
      "outputs": [
        {
          "name": "",
          "type": "bool"
        }
      ],
      "payable": false,
      "stateMutability": "nonpayable",
      "type": "function"
    },
    {
      "constant": false,
      "inputs": [
        {
          "name": "_landlordAddr",
          "type": "address"
        },
        {
          "name": "houseID",
          "type": "string"
        }
      ],
      "name": "deleteHouse",
      "outputs": [],
      "payable": false,
      "stateMutability": "nonpayable",
      "type": "function"
    },
    {
      "constant": false,
      "inputs": [
        {
          "name": "_tenantAddr",
          "type": "address"
        },
        {
          "name": "_houseID",
          "type": "string"
        },
        {
          "name": "_months",
          "type": "uint256"
        }
      ],
      "name": "rentHouse",
      "outputs": [
        {
          "name": "",
          "type": "bool"
        }
      ],
      "payable": false,
      "stateMutability": "nonpayable",
      "type": "function"
    },
    {
      "constant": false,
      "inputs": [
        {
          "name": "_landlordAddr",
          "type": "address"
        },
        {
          "name": "houseID",
          "type": "string"
        },
        {
          "name": "_months",
          "type": "uint256"
        },
        {
          "name": "isEnsured",
          "type": "bool"
        }
      ],
      "name": "ensureRentDeal",
      "outputs": [
        {
          "name": "",
          "type": "bool"
        }
      ],
      "payable": false,
      "stateMutability": "nonpayable",
      "type": "function"
    },
    {
      "constant": true,
      "inputs": [
        {
          "name": "_landlordAddr",
          "type": "address"
        }
      ],
      "name": "getLandlordPasswd",
      "outputs": [
        {
          "name": "",
          "type": "bool"
        },
        {
          "name": "",
          "type": "bytes32"
        }
      ],
      "payable": false,
      "stateMutability": "view",
      "type": "function"
    },
    {
      "constant": true,
      "inputs": [
        {
          "name": "_tenantAddr",
          "type": "address"
        }
      ],
      "name": "getTenantPasswd",
      "outputs": [
        {
          "name": "",
          "type": "bool"
        },
        {
          "name": "",
          "type": "bytes32"
        }
      ],
      "payable": false,
      "stateMutability": "view",
      "type": "function"
    },
    {
      "constant": false,
      "inputs": [
        {
          "name": "_receiver",
          "type": "address"
        },
        {
          "name": "_amount",
          "type": "uint256"
        }
      ],
      "name": "rechargeForTenantByAddress",
      "outputs": [],
      "payable": false,
      "stateMutability": "nonpayable",
      "type": "function"
    },
    {
      "constant": false,
      "inputs": [
        {
          "name": "_landlordAddr",
          "type": "address"
        },
        {
          "name": "_amount",
          "type": "uint256"
        }
      ],
      "name": "withdrawForLandlord",
      "outputs": [],
      "payable": false,
      "stateMutability": "nonpayable",
      "type": "function"
    }
  ],
  "bytecode": "0x608060405234801561001057600080fd5b5060006001819055506000600281905550336000806101000a81548173ffffffffffffffffffffffffffffffffffffffff021916908373ffffffffffffffffffffffffffffffffffffffff160217905550612b9b806100706000396000f3006080604052600436106100d0576000357c0100000000000000000000000000000000000000000000000000000000900463ffffffff1680631b3db8c8146100d557806327bc8fc51461019b5780633bd03b90146102305780633e433b5d146102b95780635f0b1fe01461036457806371547ded146103b15780637f2f516914610468578063893d20e8146104d25780638d57fedf14610529578063bd359b41146105b2578063c18b8a991461063b578063c337444b14610688578063d889e49f146106f2578063f6392220146107b8575b600080fd5b3480156100e157600080fd5b5061013c600480360381019080803590602001908201803590602001908080601f01602080910402602001604051908101604052809392919081815260200183838082843782019150505050505091929192905050506108a5565b604051808573ffffffffffffffffffffffffffffffffffffffff1673ffffffffffffffffffffffffffffffffffffffff168152602001846000191660001916815260200183815260200182815260200194505050505060405180910390f35b3480156101a757600080fd5b50610216600480360381019080803590602001908201803590602001908080601f01602080910402602001604051908101604052809392919081815260200183838082843782019150505050505091929192908035906020019092919080359060200190929190505050610a36565b604051808215151515815260200191505060405180910390f35b34801561023c57600080fd5b506102b7600480360381019080803573ffffffffffffffffffffffffffffffffffffffff169060200190929190803590602001908201803590602001908080601f0160208091040260200160405190810160405280939291908181526020018383808284378201915050505050509192919290505050610cc5565b005b3480156102c557600080fd5b5061034a600480360381019080803573ffffffffffffffffffffffffffffffffffffffff169060200190929190803590602001908201803590602001908080601f016020809104026020016040519081016040528093929190818152602001838380828437820191505050505050919291929080359060200190929190505050610dc7565b604051808215151515815260200191505060405180910390f35b34801561037057600080fd5b506103af600480360381019080803573ffffffffffffffffffffffffffffffffffffffff1690602001909291908035906020019092919050505061133b565b005b3480156103bd57600080fd5b5061044e600480360381019080803573ffffffffffffffffffffffffffffffffffffffff169060200190929190803590602001908201803590602001908080601f0160208091040260200160405190810160405280939291908181526020018383808284378201915050505050509192919290803590602001909291908035151590602001909291905050506114eb565b604051808215151515815260200191505060405180910390f35b34801561047457600080fd5b506104a9600480360381019080803573ffffffffffffffffffffffffffffffffffffffff169060200190929190505050611afc565b604051808315151515815260200182600019166000191681526020019250505060405180910390f35b3480156104de57600080fd5b506104e7611b68565b604051808273ffffffffffffffffffffffffffffffffffffffff1673ffffffffffffffffffffffffffffffffffffffff16815260200191505060405180910390f35b34801561053557600080fd5b506105b0600480360381019080803573ffffffffffffffffffffffffffffffffffffffff169060200190929190803590602001908201803590602001908080601f0160208091040260200160405190810160405280939291908181526020018383808284378201915050505050509192919290505050611b91565b005b3480156105be57600080fd5b50610639600480360381019080803573ffffffffffffffffffffffffffffffffffffffff169060200190929190803590602001908201803590602001908080601f0160208091040260200160405190810160405280939291908181526020018383808284378201915050505050509192919290505050611e7e565b005b34801561064757600080fd5b50610686600480360381019080803573ffffffffffffffffffffffffffffffffffffffff16906020019092919080359060200190929190505050612123565b005b34801561069457600080fd5b506106c9600480360381019080803573ffffffffffffffffffffffffffffffffffffffff169060200190929190505050612325565b604051808315151515815260200182600019166000191681526020019250505060405180910390f35b3480156106fe57600080fd5b50610759600480360381019080803590602001908201803590602001908080601f0160208091040260200160405190810160405280939291908181526020018383808284378201915050505050509192919290505050612391565b604051808573ffffffffffffffffffffffffffffffffffffffff1673ffffffffffffffffffffffffffffffffffffffff168152602001846000191660001916815260200183815260200182815260200194505050505060405180910390f35b3480156107c457600080fd5b506108a3600480360381019080803573ffffffffffffffffffffffffffffffffffffffff169060200190929190803590602001908201803590602001908080601f01602080910402602001604051908101604052809392919081815260200183838082843782019150505050505091929192908035906020019092919080359060200190929190803590602001908201803590602001908080601f016020809104026020016040519081016040528093929190818152602001838380828437820191505050505050919291929080359060200190929190505050612536565b005b60008060008060006108b6866129bc565b90506108c1816129ca565b15610a10577ffa2cca2e7a6b432c31d511ce94ba5b4d78ea27c1b62822c94e7cc9d67949d65733826005600085600019166000191681526020019081526020016000206003015460056000866000191660001916815260200190815260200160002060040154604051808573ffffffffffffffffffffffffffffffffffffffff1673ffffffffffffffffffffffffffffffffffffffff168152602001846000191660001916815260200183815260200182815260200194505050505060405180910390a160056000826000191660001916815260200190815260200160002060010160009054906101000a900473ffffffffffffffffffffffffffffffffffffffff168160056000846000191660001916815260200190815260200160002060030154600560008560001916600019168152602001908152602001600020600401549450945094509450610a2e565b60008060008083935082600102925081915080905094509450945094505b509193509193565b600080610a42856129bc565b90506000151560056000836000191660001916815260200190815260200160002060070160019054906101000a900460ff161515148015610ab257506000151560056000836000191660001916815260200190815260200160002060070160009054906101000a900460ff161515145b15610bd9577fcb3f207132f418a25657c29312553042642e30c138b27558e4b248fca71cf47d60056000836000191660001916815260200190815260200160002060010160009054906101000a900473ffffffffffffffffffffffffffffffffffffffff16826000604051808473ffffffffffffffffffffffffffffffffffffffff1673ffffffffffffffffffffffffffffffffffffffff16815260200183600019166000191681526020018215151515815260200180602001828103825260308152602001807fe69c89e7a79fe8b581e8afb7e6b182e69caae5a484e79086efbc8ce8afb7e5a481526020017f84e79086e5908ee5868de4bfaee694b90000000000000000000000000000000081525060400194505050505060405180910390a1610cbc565b836005600083600019166000191681526020019081526020016000206003018190555082600560008360001916600019168152602001908152602001600020600401819055507fcb3f207132f418a25657c29312553042642e30c138b27558e4b248fca71cf47d33826001604051808473ffffffffffffffffffffffffffffffffffffffff1673ffffffffffffffffffffffffffffffffffffffff1681526020018360001916600019168152602001821515151581526020018060200182810382526000815260200160200194505050505060405180910390a160019150610cbd565b5b509392505050565b6000610cd0826129bc565b9050600160056000836000191660001916815260200190815260200160002060070160026101000a81548160ff0219169083151502179055507f7dfe76448d5036e0f5ae935f71d35d83b758b1e26106bef9a91e379174f3e25983826001604051808473ffffffffffffffffffffffffffffffffffffffff1673ffffffffffffffffffffffffffffffffffffffff16815260200183600019166000191681526020018215151515815260200180602001828103825260188152602001807fe8afa5e688bfe5b18be8a2abe7a7bbe587bae688bfe6ba90000000000000000081525060200194505050505060405180910390a1505050565b600080610dd3846129bc565b9050610dde816129ca565b1561126d57600560008260001916600019168152602001908152602001600020600401546005600083600019166000191681526020019081526020016000206003015401600460008773ffffffffffffffffffffffffffffffffffffffff1673ffffffffffffffffffffffffffffffffffffffff168152602001908152602001600020600201541015610f5b577fc1db6d9fd8df779bf412f855a4a3b2b0847b968ac9ec4a9fbffc50d376b80e298582856000604051808573ffffffffffffffffffffffffffffffffffffffff1673ffffffffffffffffffffffffffffffffffffffff168152602001846000191660001916815260200183815260200182151515158152602001806020018281038252602d8152602001807fe4bd99e9a29de4b88de8b6b3e4bba5e694afe4bb98e68abce98791e4bba5e58f81526020017f8ae9a696e69c88e98791e9a29d000000000000000000000000000000000000008152506040019550505050505060405180910390a160009150611333565b600560008260001916600019168152602001908152602001600020600401546005600083600019166000191681526020019081526020016000206003015401600460008773ffffffffffffffffffffffffffffffffffffffff1673ffffffffffffffffffffffffffffffffffffffff16815260200190815260200160002060030160008282540192505081905550600560008260001916600019168152602001908152602001600020600401546005600083600019166000191681526020019081526020016000206003015401600460008773ffffffffffffffffffffffffffffffffffffffff1673ffffffffffffffffffffffffffffffffffffffff1681526020019081526020016000206002015403600460008773ffffffffffffffffffffffffffffffffffffffff1673ffffffffffffffffffffffffffffffffffffffff16815260200190815260200160002060020181905550600160056000836000191660001916815260200190815260200160002060070160006101000a81548160ff021916908315150217905550600060056000836000191660001916815260200190815260200160002060070160016101000a81548160ff0219169083151502179055508460056000836000191660001916815260200190815260200160002060070160036101000a81548173ffffffffffffffffffffffffffffffffffffffff021916908373ffffffffffffffffffffffffffffffffffffffff1602179055507fc1db6d9fd8df779bf412f855a4a3b2b0847b968ac9ec4a9fbffc50d376b80e298582856001604051808573ffffffffffffffffffffffffffffffffffffffff1673ffffffffffffffffffffffffffffffffffffffff168152602001846000191660001916815260200183815260200182151515158152602001806020018281038252602d8152602001807fe7a79fe8b581e68890e58a9fefbc8ce59091e688bfe4b89ce68f90e98692e7a181526020017faee8aea4e8afa5e4baa4e69893000000000000000000000000000000000000008152506040019550505050505060405180910390a160019150611333565b7fc1db6d9fd8df779bf412f855a4a3b2b0847b968ac9ec4a9fbffc50d376b80e298582856000604051808573ffffffffffffffffffffffffffffffffffffffff1673ffffffffffffffffffffffffffffffffffffffff168152602001846000191660001916815260200183815260200182151515158152602001806020018281038252600f8152602001807fe688bfe6ba90e4b88de5ad98e59ca800000000000000000000000000000000008152506020019550505050505060405180910390a1600091505b509392505050565b61134482612a29565b1561144a578060016000828254019250508190555080600460008473ffffffffffffffffffffffffffffffffffffffff1673ffffffffffffffffffffffffffffffffffffffff168152602001908152602001600020600201600082825401925050819055507f7f98840ee8b05a2e51c9ebdaa1d72ec309462552b7d5f25a2e1a8e249ad7b78633604051808273ffffffffffffffffffffffffffffffffffffffff1673ffffffffffffffffffffffffffffffffffffffff168152602001806020018281038252600c8152602001807fe58585e580bce68890e58a9f00000000000000000000000000000000000000008152506020019250505060405180910390a16114e7565b7f7f98840ee8b05a2e51c9ebdaa1d72ec309462552b7d5f25a2e1a8e249ad7b78633604051808273ffffffffffffffffffffffffffffffffffffffff1673ffffffffffffffffffffffffffffffffffffffff168152602001806020018281038252601e8152602001807fe8b4a6e688b7e4b8bae6b3a8e5868cefbc8ce58585e580bce5a4b1e8b4a500008152506020019250505060405180910390a15b5050565b6000806000806114fa876129bc565b925060056000846000191660001916815260200190815260200160002060070160039054906101000a900473ffffffffffffffffffffffffffffffffffffffff1691508415611802576000151560056000856000191660001916815260200190815260200160002060070160019054906101000a900460ff16151514156117f457600160056000856000191660001916815260200190815260200160002060070160016101000a81548160ff02191690831515021790555062278d00860242016005600085600019166000191681526020019081526020016000206005018190555060056000846000191660001916815260200190815260200160002060030154600360008a73ffffffffffffffffffffffffffffffffffffffff1673ffffffffffffffffffffffffffffffffffffffff1681526020019081526020016000206002015401600360008a73ffffffffffffffffffffffffffffffffffffffff1673ffffffffffffffffffffffffffffffffffffffff1681526020019081526020016000206002018190555060056000846000191660001916815260200190815260200160002060030154600460008473ffffffffffffffffffffffffffffffffffffffff1673ffffffffffffffffffffffffffffffffffffffff1681526020019081526020016000206003015403600460008473ffffffffffffffffffffffffffffffffffffffff1673ffffffffffffffffffffffffffffffffffffffff168152602001908152602001600020600301819055507f2e339312d63dcd80f6b919921df38d022fd25adca7c4f10bdae9bca9320eb1fa8884886001604051808573ffffffffffffffffffffffffffffffffffffffff1673ffffffffffffffffffffffffffffffffffffffff168152602001846000191660001916815260200183815260200182151515158152602001806020018281038252601b8152602001807fe7a79fe8b581e68890e58a9fefbc8ce9809ae79fa5e7a79fe688b700000000008152506020019550505050505060405180910390a16117fd565b60019350611af1565b611af0565b60056000846000191660001916815260200190815260200160002060070160019054906101000a900460ff16158015611863575060056000846000191660001916815260200190815260200160002060070160009054906101000a900460ff165b15611a2e57600060056000856000191660001916815260200190815260200160002060070160016101000a81548160ff021916908315150217905550600060056000856000191660001916815260200190815260200160002060070160006101000a81548160ff021916908315150217905550600560008460001916600019168152602001908152602001600020600401546005600085600019166000191681526020019081526020016000206003015401905080600460008473ffffffffffffffffffffffffffffffffffffffff1673ffffffffffffffffffffffffffffffffffffffff1681526020019081526020016000206002015401600460008473ffffffffffffffffffffffffffffffffffffffff1673ffffffffffffffffffffffffffffffffffffffff1681526020019081526020016000206002018190555080600460008473ffffffffffffffffffffffffffffffffffffffff1673ffffffffffffffffffffffffffffffffffffffff1681526020019081526020016000206003015403600460008473ffffffffffffffffffffffffffffffffffffffff1673ffffffffffffffffffffffffffffffffffffffff168152602001908152602001600020600301819055505b7f2e339312d63dcd80f6b919921df38d022fd25adca7c4f10bdae9bca9320eb1fa8884886000604051808573ffffffffffffffffffffffffffffffffffffffff1673ffffffffffffffffffffffffffffffffffffffff168152602001846000191660001916815260200183815260200182151515158152602001806020018281038252601b8152602001807fe7a79fe8b581e5a4b1e8b4a5efbc8ce9809ae79fa5e7a79fe688b700000000008152506020019550505050505060405180910390a15b5b505050949350505050565b600080611b0883612a29565b15611b5b576001600460008573ffffffffffffffffffffffffffffffffffffffff1673ffffffffffffffffffffffffffffffffffffffff1681526020019081526020016000206001015491509150611b63565b600080915091505b915091565b60008060009054906101000a900473ffffffffffffffffffffffffffffffffffffffff16905090565b611b9a82612a29565b1515611dd05781600460008473ffffffffffffffffffffffffffffffffffffffff1673ffffffffffffffffffffffffffffffffffffffff16815260200190815260200160002060000160006101000a81548173ffffffffffffffffffffffffffffffffffffffff021916908373ffffffffffffffffffffffffffffffffffffffff160217905550611c2a816129bc565b600460008473ffffffffffffffffffffffffffffffffffffffff1673ffffffffffffffffffffffffffffffffffffffff16815260200190815260200160002060010181600019169055506000600460008473ffffffffffffffffffffffffffffffffffffffff1673ffffffffffffffffffffffffffffffffffffffff1681526020019081526020016000206003018190555060078290806001815401808255809150509060018203906000526020600020016000909192909190916101000a81548173ffffffffffffffffffffffffffffffffffffffff021916908373ffffffffffffffffffffffffffffffffffffffff160217905550507fa0f79b671b4399e78e5988842c7878ce727f7b21a51a112920d9f3cc2c6749a7336001604051808373ffffffffffffffffffffffffffffffffffffffff1673ffffffffffffffffffffffffffffffffffffffff16815260200182151515158152602001806020018281038252600c8152602001807fe6b3a8e5868ce68890e58a9f0000000000000000000000000000000000000000815250602001935050505060405180910390a1611e7a565b7fa0f79b671b4399e78e5988842c7878ce727f7b21a51a112920d9f3cc2c6749a7336000604051808373ffffffffffffffffffffffffffffffffffffffff1673ffffffffffffffffffffffffffffffffffffffff1681526020018215151515815260200180602001828103825260158152602001807fe8afa5e8b4a6e688b7e5b7b2e7bb8fe6b3a8e5868c0000000000000000000000815250602001935050505060405180910390a15b5050565b611e8782612acc565b15156120755781600360008473ffffffffffffffffffffffffffffffffffffffff1673ffffffffffffffffffffffffffffffffffffffff16815260200190815260200160002060000160006101000a81548173ffffffffffffffffffffffffffffffffffffffff021916908373ffffffffffffffffffffffffffffffffffffffff160217905550611f17816129bc565b600360008473ffffffffffffffffffffffffffffffffffffffff1673ffffffffffffffffffffffffffffffffffffffff168152602001908152602001600020600101816000191690555060068290806001815401808255809150509060018203906000526020600020016000909192909190916101000a81548173ffffffffffffffffffffffffffffffffffffffff021916908373ffffffffffffffffffffffffffffffffffffffff160217905550507fdc533ced67a75b8ee439aa738921719b0a8e402585bc2f7a87a18976a1a3b5bf336001604051808373ffffffffffffffffffffffffffffffffffffffff1673ffffffffffffffffffffffffffffffffffffffff16815260200182151515158152602001806020018281038252600c8152602001807fe6b3a8e5868ce68890e58a9f0000000000000000000000000000000000000000815250602001935050505060405180910390a161211f565b7fdc533ced67a75b8ee439aa738921719b0a8e402585bc2f7a87a18976a1a3b5bf336000604051808373ffffffffffffffffffffffffffffffffffffffff1673ffffffffffffffffffffffffffffffffffffffff1681526020018215151515815260200180602001828103825260158152602001807fe8afa5e8b4a6e688b7e5b7b2e7bb8fe6b3a8e5868c0000000000000000000000815250602001935050505060405180910390a15b5050565b80600360008473ffffffffffffffffffffffffffffffffffffffff1673ffffffffffffffffffffffffffffffffffffffff168152602001908152602001600020600201541015612234577f3f105d2c4d1d19b11338d06a6a66c5069b82855c17542d49f49fc159d0f9514c33604051808273ffffffffffffffffffffffffffffffffffffffff1673ffffffffffffffffffffffffffffffffffffffff16815260200180602001828103825260218152602001807fe4bd99e9a29de4b88de8b6b3efbc8ce8afb7e9998de4bd8ee4bd93e78eb0e9a281526020017f9d000000000000000000000000000000000000000000000000000000000000008152506040019250505060405180910390a1612321565b80600360008473ffffffffffffffffffffffffffffffffffffffff1673ffffffffffffffffffffffffffffffffffffffff168152602001908152602001600020600201600082825403925050819055507f3f105d2c4d1d19b11338d06a6a66c5069b82855c17542d49f49fc159d0f9514c33604051808273ffffffffffffffffffffffffffffffffffffffff1673ffffffffffffffffffffffffffffffffffffffff168152602001806020018281038252600c8152602001807fe68f90e78eb0e68890e58a9f00000000000000000000000000000000000000008152506020019250505060405180910390a15b5050565b60008061233183612acc565b15612384576001600360008573ffffffffffffffffffffffffffffffffffffffff1673ffffffffffffffffffffffffffffffffffffffff168152602001908152602001600020600101549150915061238c565b600080915091505b915091565b600080600080600080600091505b60088054905082101561250f576008828154811015156123bb57fe5b906000526020600020015490506000151560056000836000191660001916815260200190815260200160002060070160009054906101000a900460ff16151514801561243657506000151560056000836000191660001916815260200190815260200160002060070160029054906101000a900460ff161515145b1561244057612502565b612449876129bc565b60001916600560008360001916600019168152602001908152602001600020600801546000191614156125015760056000826000191660001916815260200190815260200160002060010160009054906101000a900473ffffffffffffffffffffffffffffffffffffffff16816005600084600019166000191681526020019081526020016000206003015460056000856000191660001916815260200190815260200160002060040154955095509550955061252d565b5b818060010192505061239f565b60008060008083935082600102925081915080905095509550955095505b50509193509193565b6000612541866129bc565b905061254c816129ca565b1515612909578060056000836000191660001916815260200190815260200160002060000181600019169055508660056000836000191660001916815260200190815260200160002060010160006101000a81548173ffffffffffffffffffffffffffffffffffffffff021916908373ffffffffffffffffffffffffffffffffffffffff1602179055508460056000836000191660001916815260200190815260200160002060020181905550612602836129bc565b60056000836000191660001916815260200190815260200160002060080181600019169055508360056000836000191660001916815260200190815260200160002060030181905550426005600083600019166000191681526020019081526020016000206005018190555042600560008360001916600019168152602001908152602001600020600601819055508160056000836000191660001916815260200190815260200160002060040181905550600060056000836000191660001916815260200190815260200160002060070160036101000a81548173ffffffffffffffffffffffffffffffffffffffff021916908373ffffffffffffffffffffffffffffffffffffffff160217905550600060056000836000191660001916815260200190815260200160002060070160006101000a81548160ff021916908315150217905550600060056000836000191660001916815260200190815260200160002060070160016101000a81548160ff021916908315150217905550600060056000836000191660001916815260200190815260200160002060070160026101000a81548160ff0219169083151502179055506008819080600181540180825580915050906001820390600052602060002001600090919290919091509060001916905550600360008873ffffffffffffffffffffffffffffffffffffffff1673ffffffffffffffffffffffffffffffffffffffff1681526020019081526020016000206003018190806001815401808255809150509060018203906000526020600020016000909192909190915090600019169055507fc76eaf9a10f2c9fd986c14d278d74daba1154b2298dc212dc50ef2ac66fffd37336001604051808373ffffffffffffffffffffffffffffffffffffffff1673ffffffffffffffffffffffffffffffffffffffff1681526020018215151515815260200180602001828103825260128152602001807fe6b7bbe58aa0e688bfe6ba90e68890e58a9f0000000000000000000000000000815250602001935050505060405180910390a16129b3565b7fc76eaf9a10f2c9fd986c14d278d74daba1154b2298dc212dc50ef2ac66fffd37336000604051808373ffffffffffffffffffffffffffffffffffffffff1673ffffffffffffffffffffffffffffffffffffffff1681526020018215151515815260200180602001828103825260158152602001807fe688bfe6ba90e5b7b2e7bb8fe8a2abe6b7bbe58aa00000000000000000000000815250602001935050505060405180910390a15b50505050505050565b600060208201519050919050565b600080600090505b600880549050811015612a1e5782600019166008828154811015156129f357fe5b9060005260206000200154600019161415612a115760019150612a23565b80806001019150506129d2565b600091505b50919050565b600080600090505b600780549050811015612ac1578273ffffffffffffffffffffffffffffffffffffffff16600782815481101515612a6457fe5b9060005260206000200160009054906101000a900473ffffffffffffffffffffffffffffffffffffffff1673ffffffffffffffffffffffffffffffffffffffff161415612ab45760019150612ac6565b8080600101915050612a31565b600091505b50919050565b600080600090505b600680549050811015612b64578273ffffffffffffffffffffffffffffffffffffffff16600682815481101515612b0757fe5b9060005260206000200160009054906101000a900473ffffffffffffffffffffffffffffffffffffffff1673ffffffffffffffffffffffffffffffffffffffff161415612b575760019150612b69565b8080600101915050612ad4565b600091505b509190505600a165627a7a72305820fafd907d2de3a219756de58e5c7c6b3f38f4e1e3471f72809bdb70e9558907e60029",
  "source": "pragma solidity 0.4.24;\r\nimport \"./UtilsLib.sol\";\r\ncontract ChainHome{\r\n    address owner;//\r\n    uint totalAmount;//\r\n    uint withdrawAmount;//\r\n    \r\n\tstruct House{\r\n        bytes32 houseID;//id \r\n        address belong;// \r\n        uint area; //\r\n        uint price_month;//\r\n        uint cash_pledge;//\r\n        uint end_time;//\r\n        uint signed_time;//\r\n        bool isRented;//\r\n        bool isEnsured;//\r\n        bool isDisuse;//\r\n        address beRentBy;//\r\n\t\tbytes32 location;\r\n        bytes32 otherinfo;//\r\n    }\r\n    struct Landlord{\r\n        address landlordAddr;//address\r\n        bytes32 passwd;//\r\n        uint balance;//\r\n        bytes32[] rentHouses;//\r\n    }\r\n    struct Tenant{\r\n        address tenantAddr;//\r\n        bytes32 passwd; //\r\n        uint balance;//\r\n        uint frozenBalance;//\r\n        bytes32[] nowLivingHouses;//\r\n    }\r\n    // struct Deal{//\r\n    //     address landlord;\r\n    //     address tenant;\r\n    //     bytes32 houseID;\r\n    //     uint start_time;\r\n    //     uint end_time;\r\n    // }\r\n    mapping(address=>Landlord) landlord;//address\r\n    mapping(address=>Tenant) tenant;//address\r\n    mapping(bytes32=>House) house;//\r\n    //mapping(bytes32=>Deal) deal;//ID\r\n\r\n    address[] landlords;//,address\r\n    address[] tenants;//,address\r\n    bytes32[] houses;//,houseId\r\n   // bytes32[] deals;//houseId\r\n    \r\n\t//\r\n    function ChainHome(){\r\n        totalAmount=0;\r\n        withdrawAmount=0;\r\n        owner=msg.sender;\r\n    }\r\n    // \r\n    modifier onlyOwner(){\r\n        if(msg.sender!=owner) throw;\r\n        _;\r\n    }\r\n    //\r\n    function getOwner() constant returns(address){\r\n        return owner;\r\n    }\r\n    //\r\n    event NewLandLord(address sender,bool isSuccess,string message);\r\n    function newLandLord(address _landlordAddr,string _passwd){\r\n        // \r\n        if(!isLandlordAlreadyIn(_landlordAddr)){//\r\n            landlord[_landlordAddr].landlordAddr=_landlordAddr;\r\n            landlord[_landlordAddr].passwd=UtilsLib.stringToBytes32(_passwd);\r\n            landlords.push(_landlordAddr);\r\n            NewLandLord(msg.sender,true,\"\");\r\n            return;\r\n        }else{\r\n            NewLandLord(msg.sender,false,\"\");\r\n            return;\r\n        }\r\n    }\r\n    //\r\n    event NewTenant(address sender,bool isSuccess,string message);\r\n    function newTenant(address _tenantAddr,string _passwd){\r\n        // \r\n        if(!isTenantsAlreadyIn(_tenantAddr)){\r\n            tenant[_tenantAddr].tenantAddr=_tenantAddr;\r\n            tenant[_tenantAddr].passwd=UtilsLib.stringToBytes32(_passwd);\r\n            tenant[_tenantAddr].frozenBalance=0;\r\n            tenants.push(_tenantAddr);\r\n            NewTenant(msg.sender,true,\"\");\r\n            return;\r\n        }else{\r\n            NewTenant(msg.sender,false,\"\");\r\n            return;\r\n        }\r\n    }\r\n    //\r\n    function isLandlordAlreadyIn(address _landlordAddr) internal returns(bool){\r\n        for(uint i =0; i< landlords.length;i++){\r\n            if(landlords[i]==_landlordAddr){\r\n                return true;\r\n            }\r\n        }\r\n        return false;\r\n    }\r\n    //\r\n    function isTenantsAlreadyIn(address _tenantAddr) internal returns(bool){\r\n        for(uint i =0; i< tenants.length;i++){\r\n            if(tenants[i]==_tenantAddr){\r\n                return true;\r\n            }\r\n        }\r\n        return false;\r\n    }\r\n    //\r\n    function isHouseAlreadyIn(bytes32 _houseID)internal returns(bool){\r\n        for(uint i=0;i<houses.length;i++){\r\n            if(houses[i]==_houseID){\r\n                return true;\r\n            }\r\n        }\r\n        return false;\r\n    }\r\n    \r\n    //\r\n    event AddHouse(address sender,bool isSuccess,string message);\r\n    function addHouse(address _landlordAddr,string _houseID,uint _area,uint _price,string _location,uint _cash_pledge){\r\n        bytes32 tempID=UtilsLib.stringToBytes32(_houseID);\r\n        if(!isHouseAlreadyIn(tempID)){//\r\n            house[tempID].houseID=tempID;\r\n            house[tempID].belong=_landlordAddr;\r\n            house[tempID].area=_area;\r\n\t\t\thouse[tempID].location=UtilsLib.stringToBytes32(_location);\r\n            house[tempID].price_month=_price;\r\n            house[tempID].end_time=now;\r\n            house[tempID].signed_time=now;\r\n            house[tempID].cash_pledge=_cash_pledge;\r\n            house[tempID].beRentBy=0x0;\r\n            house[tempID].isRented=false;\r\n            house[tempID].isEnsured=false;\r\n            house[tempID].isDisuse=false;\r\n            houses.push(tempID);\r\n            landlord[_landlordAddr].rentHouses.push(tempID);\r\n            AddHouse(msg.sender,true,\"\");\r\n            return;\r\n        }else{\r\n            AddHouse(msg.sender,false,\"\");\r\n            return;\r\n        }\r\n    }\r\n    //idid,\r\n    event GetHouseByHouseId(address sender,bytes32 houseID,uint price_month,uint cash_pledge);\r\n    function getHouseByHouseId(string houseID)returns(address,bytes32,uint,uint){\r\n        bytes32 _houseID = UtilsLib.stringToBytes32(houseID);\r\n        if(isHouseAlreadyIn(_houseID)){\r\n            GetHouseByHouseId(msg.sender,_houseID,house[_houseID].price_month,house[_houseID].cash_pledge);\r\n            return (house[_houseID].belong,_houseID,house[_houseID].price_month,house[_houseID].cash_pledge);\r\n        }else{\r\n            return (0x0,0,0,0);\r\n        }\r\n    }\r\n\t//id,\r\n\tfunction searchHouseByKeyWords(string  keywords)returns(address,bytes32,uint,uint){\r\n    //\r\n        for(uint i=0;i<houses.length;i++){\r\n            bytes32 _houseID=houses[i];\r\n            if(house[_houseID].isRented==false && house[_houseID].isDisuse==false )\r\n                continue;\r\n            if(house[_houseID].location==UtilsLib.stringToBytes32(keywords)){\r\n                return (house[_houseID].belong,_houseID,house[_houseID].price_month,house[_houseID].cash_pledge);\r\n            }\r\n        }  \r\n        return (0x0,0,0,0);\r\n    }\r\n    \r\n    //\r\n    event UpdateHouseInfo(address sender,bytes32 houseID,bool isSuccess,string message);\r\n    function updateHouseInfo(string _houseID,uint price,uint _cash_pledge)returns(bool){\r\n        bytes32 tempID=UtilsLib.stringToBytes32(_houseID);\r\n        if(house[tempID].isEnsured==false&&house[tempID].isRented==false){\r\n            UpdateHouseInfo(house[tempID].belong,tempID,false,\"\");\r\n        }else{\r\n            house[tempID].price_month=price;\r\n            house[tempID].cash_pledge=_cash_pledge;\r\n            UpdateHouseInfo(msg.sender,tempID,true,\"\");\r\n            return true;\r\n        }\r\n    }\r\n    \r\n    //\r\n    event DeleteHouse(address sender,bytes32 houseID,bool isSuccess,string message);\r\n    function deleteHouse(address _landlordAddr,string houseID){\r\n        bytes32 tempID=UtilsLib.stringToBytes32(houseID);\r\n        house[tempID].isDisuse=true;\r\n        DeleteHouse(_landlordAddr,tempID,true,\"\");\r\n    }\r\n    \r\n    //\r\n    event RentHouse(address sender,bytes32 houseID,uint _months,bool isSuccess,string message);\r\n    function rentHouse(address _tenantAddr,string _houseID,uint _months)returns(bool){\r\n        bytes32 tempID=UtilsLib.stringToBytes32(_houseID);\r\n        if(isHouseAlreadyIn(tempID)){\r\n            if(tenant[_tenantAddr].balance<house[tempID].price_month+house[tempID].cash_pledge){\r\n                RentHouse(_tenantAddr,tempID,_months,false,\"\");\r\n                return false;\r\n            }else {\r\n                tenant[_tenantAddr].frozenBalance+=house[tempID].price_month+house[tempID].cash_pledge;//\r\n                tenant[_tenantAddr].balance=tenant[_tenantAddr].balance -(house[tempID].price_month+house[tempID].cash_pledge);//\r\n                house[tempID].isRented=true;\r\n                house[tempID].isEnsured=false;\r\n                house[tempID].beRentBy=_tenantAddr;\r\n                RentHouse(_tenantAddr,tempID,_months,true,\"\");\r\n                return true;\r\n            }\r\n        }\r\n        RentHouse(_tenantAddr,tempID,_months,false,\"\");\r\n        return false;\r\n    }\r\n    //\r\n    event EnsureRentDeal(address sender,bytes32 houseID,uint _months,bool isSuccess,string message);\r\n    function ensureRentDeal(address _landlordAddr,string houseID,uint _months,bool isEnsured)returns(bool){\r\n        bytes32 tempID=UtilsLib.stringToBytes32(houseID);\r\n        address _tenantAddr=house[tempID].beRentBy;\r\n        if(isEnsured){//\r\n            if(house[tempID].isEnsured==false){//\r\n                house[tempID].isEnsured=true;\r\n                house[tempID].end_time=now+_months*30 days;\r\n                //deal[]\r\n                landlord[_landlordAddr].balance=landlord[_landlordAddr].balance+house[tempID].price_month;\r\n                tenant[_tenantAddr].frozenBalance=tenant[_tenantAddr].frozenBalance-house[tempID].price_month;\r\n                \r\n                EnsureRentDeal(_landlordAddr,tempID,_months,true,\"\");\r\n            }else{\r\n             return true;  \r\n            }\r\n        }else{//\r\n            if((!house[tempID].isEnsured)&&house[tempID].isRented){//\r\n                house[tempID].isEnsured=false;\r\n                house[tempID].isRented=false;\r\n                uint totalCost=house[tempID].price_month+house[tempID].cash_pledge;\r\n                tenant[_tenantAddr].balance=tenant[_tenantAddr].balance+totalCost;\r\n                tenant[_tenantAddr].frozenBalance = tenant[_tenantAddr].frozenBalance - totalCost;\r\n            }\r\n            EnsureRentDeal(_landlordAddr,tempID,_months,false,\"\");\r\n        }\r\n    }\r\n    \r\n    //\r\n    function getLandlordPasswd(address _landlordAddr)constant returns(bool,bytes32){\r\n        if(isLandlordAlreadyIn(_landlordAddr)){\r\n            return (true,landlord[_landlordAddr].passwd);\r\n        }else{\r\n            return(false,\"\");\r\n        }\r\n    }\r\n    function getTenantPasswd(address _tenantAddr)constant returns(bool,bytes32){\r\n        if(isTenantsAlreadyIn(_tenantAddr)){\r\n            return (true,tenant[_tenantAddr].passwd);\r\n        }else{\r\n            return(false,\"\");\r\n        }\r\n    }\r\n    //\r\n    event RechargeFoTenantByAddress(address sender,string message);\r\n    function rechargeForTenantByAddress(address _receiver,uint _amount){\r\n        if(isTenantsAlreadyIn(_receiver)){\r\n            totalAmount+=_amount;\r\n            tenant[_receiver].balance+=_amount;\r\n            RechargeFoTenantByAddress(msg.sender,\"\");\r\n            return;\r\n        }else{\r\n            RechargeFoTenantByAddress(msg.sender,\"\");\r\n            return ;\r\n        }\r\n    }\r\n    \r\n    event Withdraw(address sender,string message);\r\n    function withdrawForLandlord(address _landlordAddr,uint _amount){\r\n        if(landlord[_landlordAddr].balance<_amount){\r\n            Withdraw(msg.sender,\"\");\r\n        }else{\r\n            landlord[_landlordAddr].balance-=_amount;\r\n            //to  do......\r\n            Withdraw(msg.sender,\"\");\r\n        }\r\n    }\r\n}",
  "sourcePath": "/home/xiang/Desktop/ethereum/ethereum/contracts/ChainHome.sol",
  "compiler": {
    "name": "solc",
    "version": "0.4.24+commit.e67f0147.Emscripten.clang"
  },
  "schemaVersion": "2.0.1",
  "updatedAt": "2018-11-15T15:30:08.194Z"
}