{
  "contractName": "Hello_mshk_top",
  "abi": [
    {
      "constant": true,
      "inputs": [],
      "name": "say",
      "outputs": [
        {
          "name": "",
          "type": "string"
        }
      ],
      "payable": false,
      "stateMutability": "view",
      "type": "function"
    }
  ],
  "bytecode": "0x608060405234801561001057600080fd5b5061013f806100206000396000f300608060405260043610610041576000357c0100000000000000000000000000000000000000000000000000000000900463ffffffff168063954ab4b214610046575b600080fd5b34801561005257600080fd5b5061005b6100d6565b6040518080602001828103825283818151815260200191508051906020019080838360005b8381101561009b578082015181840152602081019050610080565b50505050905090810190601f1680156100c85780820380516001836020036101000a031916815260200191505b509250505060405180910390f35b60606040805190810160405280600e81526020017f48656c6c6f206d73686b2e746f700000000000000000000000000000000000008152509050905600a165627a7a7230582051ae5510a83d155894f653feb1e0626d3d965beff3ee37e7fa0a15df6bb45ca30029",
  "source": "pragma solidity ^0.4.23; \n\ncontract Hello_mshk_top {\n\n  //say hello mshk.top\n    function say() public view returns (string) {\n        return \"Hello mshk.top\";\n    }\n\n  //print name\n//    function print(string name) public pure returns (string) {\n//        return name;\n//    }\n}\n",
  "sourcePath": "/home/zwb/truffle/contracts/Hello_mshk_top.sol",
  "compiler": {
    "name": "solc",
    "version": "0.4.24+commit.e67f0147.Emscripten.clang"
  },
  "schemaVersion": "2.0.1",
  "updatedAt": "2018-11-15T13:17:43.414Z"
}